{
  "contractName": "User",
  "abi": [
    {
      "inputs": [
        {
          "internalType": "string",
          "name": "_id",
          "type": "string"
        },
        {
          "internalType": "string",
          "name": "_name",
          "type": "string"
        },
        {
          "internalType": "string",
          "name": "_pass",
          "type": "string"
        },
        {
          "internalType": "uint256",
          "name": "_age",
          "type": "uint256"
        },
        {
          "internalType": "string",
          "name": "_gender",
          "type": "string"
        },
        {
          "internalType": "string",
          "name": "_vaccine_status",
          "type": "string"
        },
        {
          "internalType": "string",
          "name": "_district",
          "type": "string"
        },
        {
          "internalType": "string",
          "name": "_symptoms_details",
          "type": "string"
        },
        {
          "internalType": "bool",
          "name": "_is_dead",
          "type": "bool"
        },
        {
          "internalType": "string",
          "name": "_mode",
          "type": "string"
        }
      ],
      "name": "registerUser",
      "outputs": [],
      "stateMutability": "nonpayable",
      "type": "function"
    },
    {
      "inputs": [
        {
          "internalType": "string",
          "name": "_id",
          "type": "string"
        }
      ],
      "name": "getUser",
      "outputs": [
        {
          "internalType": "string",
          "name": "",
          "type": "string"
        }
      ],
      "stateMutability": "view",
      "type": "function",
      "constant": true
    },
    {
      "inputs": [],
      "name": "getPatientList",
      "outputs": [
        {
          "internalType": "string[]",
          "name": "",
          "type": "string[]"
        }
      ],
      "stateMutability": "view",
      "type": "function",
      "constant": true
    },
    {
      "inputs": [
        {
          "internalType": "string",
          "name": "_id",
          "type": "string"
        },
        {
          "internalType": "string",
          "name": "_vaccine_status",
          "type": "string"
        }
      ],
      "name": "updatePatientVaccine",
      "outputs": [],
      "stateMutability": "nonpayable",
      "type": "function"
    },
    {
      "inputs": [
        {
          "internalType": "string",
          "name": "_id",
          "type": "string"
        },
        {
          "internalType": "bool",
          "name": "_is_dead",
          "type": "bool"
        }
      ],
      "name": "updatePatientDead",
      "outputs": [],
      "stateMutability": "nonpayable",
      "type": "function"
    },
    {
      "inputs": [
        {
          "internalType": "string",
          "name": "_id",
          "type": "string"
        }
      ],
      "name": "getCertificate",
      "outputs": [
        {
          "internalType": "string",
          "name": "",
          "type": "string"
        },
        {
          "internalType": "string",
          "name": "",
          "type": "string"
        },
        {
          "internalType": "uint256",
          "name": "",
          "type": "uint256"
        },
        {
          "internalType": "string",
          "name": "",
          "type": "string"
        },
        {
          "internalType": "bool",
          "name": "",
          "type": "bool"
        }
      ],
      "stateMutability": "view",
      "type": "function",
      "constant": true
    },
    {
      "inputs": [],
      "name": "getDeathCount",
      "outputs": [
        {
          "internalType": "uint256",
          "name": "",
          "type": "uint256"
        }
      ],
      "stateMutability": "view",
      "type": "function",
      "constant": true
    },
    {
      "inputs": [],
      "name": "getPatientCount",
      "outputs": [
        {
          "internalType": "uint256",
          "name": "",
          "type": "uint256"
        }
      ],
      "stateMutability": "view",
      "type": "function",
      "constant": true
    },
    {
      "inputs": [],
      "name": "getHighestPatient",
      "outputs": [
        {
          "internalType": "string",
          "name": "",
          "type": "string"
        },
        {
          "internalType": "uint256",
          "name": "",
          "type": "uint256"
        }
      ],
      "stateMutability": "view",
      "type": "function",
      "constant": true
    },
    {
      "inputs": [],
      "name": "getDistrictList",
      "outputs": [
        {
          "internalType": "string[]",
          "name": "",
          "type": "string[]"
        }
      ],
      "stateMutability": "view",
      "type": "function",
      "constant": true
    },
    {
      "inputs": [],
      "name": "getMedianAge",
      "outputs": [
        {
          "internalType": "uint256[]",
          "name": "",
          "type": "uint256[]"
        }
      ],
      "stateMutability": "view",
      "type": "function",
      "constant": true
    },
    {
      "inputs": [],
      "name": "getChildren",
      "outputs": [
        {
          "internalType": "uint256[]",
          "name": "",
          "type": "uint256[]"
        }
      ],
      "stateMutability": "view",
      "type": "function",
      "constant": true
    },
    {
      "inputs": [],
      "name": "getTeen",
      "outputs": [
        {
          "internalType": "uint256[]",
          "name": "",
          "type": "uint256[]"
        }
      ],
      "stateMutability": "view",
      "type": "function",
      "constant": true
    },
    {
      "inputs": [],
      "name": "getYoung",
      "outputs": [
        {
          "internalType": "uint256[]",
          "name": "",
          "type": "uint256[]"
        }
      ],
      "stateMutability": "view",
      "type": "function",
      "constant": true
    },
    {
      "inputs": [],
      "name": "getElder",
      "outputs": [
        {
          "internalType": "uint256[]",
          "name": "",
          "type": "uint256[]"
        }
      ],
      "stateMutability": "view",
      "type": "function",
      "constant": true
    },
    {
      "inputs": [
        {
          "internalType": "string",
          "name": "_userId",
          "type": "string"
        }
      ],
      "name": "setSessionUser",
      "outputs": [],
      "stateMutability": "nonpayable",
      "type": "function"
    },
    {
      "inputs": [],
      "name": "getSessionUser",
      "outputs": [
        {
          "internalType": "string",
          "name": "",
          "type": "string"
        }
      ],
      "stateMutability": "view",
      "type": "function",
      "constant": true
    },
    {
      "inputs": [],
      "name": "getUserMode",
      "outputs": [
        {
          "internalType": "string",
          "name": "",
          "type": "string"
        }
      ],
      "stateMutability": "view",
      "type": "function",
      "constant": true
    }
  ],
  "bytecode": "0x6080604052600060045560405180602001604052806000815250600d9081620000299190620002b8565b503480156200003757600080fd5b506200039f565b600081519050919050565b7f4e487b7100000000000000000000000000000000000000000000000000000000600052604160045260246000fd5b7f4e487b7100000000000000000000000000000000000000000000000000000000600052602260045260246000fd5b60006002820490506001821680620000c057607f821691505b602082108103620000d657620000d562000078565b5b50919050565b60008190508160005260206000209050919050565b60006020601f8301049050919050565b600082821b905092915050565b600060088302620001407fffffffffffffffffffffffffffffffffffffffffffffffffffffffffffffffff8262000101565b6200014c868362000101565b95508019841693508086168417925050509392505050565b6000819050919050565b6000819050919050565b600062000199620001936200018d8462000164565b6200016e565b62000164565b9050919050565b6000819050919050565b620001b58362000178565b620001cd620001c482620001a0565b8484546200010e565b825550505050565b600090565b620001e4620001d5565b620001f1818484620001aa565b505050565b5b8181101562000219576200020d600082620001da565b600181019050620001f7565b5050565b601f82111562000268576200023281620000dc565b6200023d84620000f1565b810160208510156200024d578190505b620002656200025c85620000f1565b830182620001f6565b50505b505050565b600082821c905092915050565b60006200028d600019846008026200026d565b1980831691505092915050565b6000620002a883836200027a565b9150826002028217905092915050565b620002c3826200003e565b67ffffffffffffffff811115620002df57620002de62000049565b5b620002eb8254620000a7565b620002f88282856200021d565b600060209050601f8311600181146200033057600084156200031b578287015190505b6200032785826200029a565b86555062000397565b601f1984166200034086620000dc565b60005b828110156200036a5784890151825560018201915060208501945060208101905062000343565b868310156200038a578489015162000386601f8916826200027a565b8355505b6001600288020188555050505b505050505050565b6125e480620003af6000396000f3fe608060405234801561001057600080fd5b50600436106101165760003560e01c806349d353d8116100a2578063d33c654011610071578063d33c6540146102b0578063d5663d5e146102cc578063da4f9105146102ea578063eae49ef314610306578063ed0f2e751461032457610116565b806349d353d81461023a578063503b13541461025857806389bd1fb214610276578063c190665b1461029257610116565b80633a9a218f116100e95780633a9a218f146101a55780633aabc363146101c15780634143ea5a146101e057806344c1c2a0146101fe5780634892e8e81461021c57610116565b80630f30a0411461011b5780631dc3c22c146101395780633097fa671461015757806331feb67114610175575b600080fd5b610123610358565b60405161013091906117fb565b60405180910390f35b6101416103b0565b60405161014e91906118ad565b60405180910390f35b61015f61049a565b60405161016c91906118ad565b60405180910390f35b61018f600480360381019061018a9190611a18565b61052c565b60405161019c91906118ad565b60405180910390f35b6101bf60048036038101906101ba9190611a18565b61064e565b005b6101c9610661565b6040516101d7929190611a70565b60405180910390f35b6101e86107c6565b6040516101f591906117fb565b60405180910390f35b610206610b20565b60405161021391906117fb565b60405180910390f35b610224610b78565b60405161023191906117fb565b60405180910390f35b610242610bd0565b60405161024f9190611aa0565b60405180910390f35b610260610bda565b60405161026d9190611bc7565b60405180910390f35b610290600480360381019061028b9190611be9565b610d62565b005b61029a610d95565b6040516102a79190611aa0565b60405180910390f35b6102ca60048036038101906102c59190611c99565b610d9f565b005b6102d4610e9a565b6040516102e19190611bc7565b60405180910390f35b61030460048036038101906102ff9190611d21565b611022565b005b61030e611468565b60405161031b91906117fb565b60405180910390f35b61033e60048036038101906103399190611a18565b6114c0565b60405161034f959493929190611eef565b60405180910390f35b6060600b8054806020026020016040519081016040528092919081815260200182805480156103a657602002820191906000526020600020905b815481526020019060010190808311610392575b5050505050905090565b60606001600d6040516103c3919061205a565b908152602001604051809103902060009054906101000a900460ff1615610496576000600d6040516103f5919061205a565b9081526020016040518091039020600901805461041190611f86565b80601f016020809104026020016040519081016040528092919081815260200182805461043d90611f86565b801561048a5780601f1061045f5761010080835404028352916020019161048a565b820191906000526020600020905b81548152906001019060200180831161046d57829003601f168201915b50505050509050610497565b5b90565b6060600d80546104a990611f86565b80601f01602080910402602001604051908101604052809291908181526020018280546104d590611f86565b80156105225780601f106104f757610100808354040283529160200191610522565b820191906000526020600020905b81548152906001019060200180831161050557829003601f168201915b5050505050905090565b606060018260405161053e91906120a2565b908152602001604051809103902060009054906101000a900460ff16156106105760008260405161056f91906120a2565b9081526020016040518091039020600201805461058b90611f86565b80601f01602080910402602001604051908101604052809291908181526020018280546105b790611f86565b80156106045780601f106105d957610100808354040283529160200191610604565b820191906000526020600020905b8154815290600101906020018083116105e757829003601f168201915b50505050509050610649565b6040518060400160405280600481526020017f4e6f6e650000000000000000000000000000000000000000000000000000000081525090505b919050565b80600d908161065d9190612250565b5050565b606060008060009050606060005b6006805490508110156107b9578260076006838154811061069357610692612322565b5b906000526020600020016040516106aa919061205a565b908152602001604051809103902054106107a6576007600682815481106106d4576106d3612322565b5b906000526020600020016040516106eb919061205a565b9081526020016040518091039020549250600681815481106107105761070f612322565b5b90600052602060002001805461072590611f86565b80601f016020809104026020016040519081016040528092919081815260200182805461075190611f86565b801561079e5780601f106107735761010080835404028352916020019161079e565b820191906000526020600020905b81548152906001019060200180831161078157829003601f168201915b505050505091505b80806107b190612380565b91505061066f565b5080829350935050509091565b6060600060068054905067ffffffffffffffff8111156107e9576107e86118ed565b5b6040519080825280602002602001820160405280156108175781602001602082028036833780820191505090505b50905060005b600680549050811015610b1857600060086006838154811061084257610841612322565b5b90600052602060002001604051610859919061205a565b90815260200160405180910390208054806020026020016040519081016040528092919081815260200182805480156108b157602002820191906000526020600020905b81548152602001906001019080831161089d575b5050505050905060005b600182516108c991906123c8565b8110156109ef5760005b60018284516108e291906123c8565b6108ec91906123c8565b8110156109db578260018261090191906123fc565b8151811061091257610911612322565b5b602002602001015183828151811061092d5761092c612322565b5b602002602001015111156109c8578260018261094991906123fc565b8151811061095a57610959612322565b5b602002602001015183828151811061097557610974612322565b5b60200260200101518483815181106109905761098f612322565b5b60200260200101856001856109a591906123fc565b815181106109b6576109b5612322565b5b60200260200101828152508281525050505b80806109d390612380565b9150506108d3565b5080806109e790612380565b9150506108bb565b50600081519050600080600283610a06919061245f565b14610a5757600060016002600185610a1e91906123fc565b610a289190612490565b610a3291906123c8565b9050838181518110610a4757610a46612322565b5b6020026020010151915050610ae2565b6000600283610a669190612490565b905060006002600185610a7991906123fc565b610a839190612490565b905060016002868381518110610a9c57610a9b612322565b5b6020026020010151878581518110610ab757610ab6612322565b5b6020026020010151610ac991906123fc565b610ad39190612490565b610add91906123c8565b925050505b80858581518110610af657610af5612322565b5b6020026020010181815250505050508080610b1090612380565b91505061081d565b508091505090565b6060600c805480602002602001604051908101604052809291908181526020018280548015610b6e57602002820191906000526020600020905b815481526020019060010190808311610b5a575b5050505050905090565b60606009805480602002602001604051908101604052809291908181526020018280548015610bc657602002820191906000526020600020905b815481526020019060010190808311610bb2575b5050505050905090565b6000600454905090565b606060006001600280549050610bf091906123fc565b67ffffffffffffffff811115610c0957610c086118ed565b5b604051908082528060200260200182016040528015610c3c57816020015b6060815260200190600190039081610c275790505b50905060005b600280549050811015610d275760028181548110610c6357610c62612322565b5b906000526020600020018054610c7890611f86565b80601f0160208091040260200160405190810160405280929190818152602001828054610ca490611f86565b8015610cf15780601f10610cc657610100808354040283529160200191610cf1565b820191906000526020600020905b815481529060010190602001808311610cd457829003601f168201915b5050505050828281518110610d0957610d08612322565b5b60200260200101819052508080610d1f90612380565b915050610c42565b50604051806020016040528060008152508160028054905081518110610d5057610d4f612322565b5b60200260200101819052508091505090565b80600083604051610d7391906120a2565b90815260200160405180910390206005019081610d909190612250565b505050565b6000600354905090565b600082604051610daf91906120a2565b908152602001604051809103902060080160009054906101000a900460ff16604051602001610dde9190612509565b6040516020818303038152906040528051906020012081604051602001610e059190612509565b6040516020818303038152906040528051906020012014610e96578015610e435760046000815480929190610e3990612380565b9190505550610e5c565b60046000815480929190610e5690612524565b91905055505b80600083604051610e6d91906120a2565b908152602001604051809103902060080160006101000a81548160ff0219169083151502179055505b5050565b606060006001600680549050610eb091906123fc565b67ffffffffffffffff811115610ec957610ec86118ed565b5b604051908082528060200260200182016040528015610efc57816020015b6060815260200190600190039081610ee75790505b50905060005b600680549050811015610fe75760068181548110610f2357610f22612322565b5b906000526020600020018054610f3890611f86565b80601f0160208091040260200160405190810160405280929190818152602001828054610f6490611f86565b8015610fb15780601f10610f8657610100808354040283529160200191610fb1565b820191906000526020600020905b815481529060010190602001808311610f9457829003601f168201915b5050505050828281518110610fc957610fc8612322565b5b60200260200101819052508080610fdf90612380565b915050610f02565b506040518060200160405280600081525081600680549050815181106110105761100f612322565b5b60200260200101819052508091505090565b6040518061014001604052808b81526020018a815260200189815260200188815260200187815260200186815260200185815260200184815260200183151581526020018281525060008b60405161107a91906120a2565b9081526020016040518091039020600082015181600001908161109d9190612250565b5060208201518160010190816110b39190612250565b5060408201518160020190816110c99190612250565b506060820151816003015560808201518160040190816110e99190612250565b5060a08201518160050190816110ff9190612250565b5060c08201518160060190816111159190612250565b5060e082015181600701908161112b9190612250565b506101008201518160080160006101000a81548160ff0219169083151502179055506101208201518160090190816111639190612250565b509050506001808b60405161117891906120a2565b908152602001604051809103902060006101000a81548160ff0219169083151502179055506040516020016111ac90612599565b60405160208183030381529060405280519060200120816040516020016111d391906120a2565b604051602081830303815290604052805190602001200361145c576005846040516111fe91906120a2565b908152602001604051809103902060009054906101000a900460ff1661128b57600160058560405161123091906120a2565b908152602001604051809103902060006101000a81548160ff0219169083151502179055506006849080600181540180825580915050600190039060005260206000200160009091909190915090816112899190612250565b505b60028a9080600181540180825580915050600190039060005260206000200160009091909190915090816112bf9190612250565b50600360008154809291906112d390612380565b91905055506007846040516112e891906120a2565b9081526020016040518091039020600081548092919061130790612380565b919050555060088460405161131c91906120a2565b9081526020016040518091039020879080600181540180825580915050600190039060005260206000200160009091909190915055600d87101561138857600987908060018154018082558091505060019003906000526020600020016000909190919091505561143c565b600d87101580156113995750601487105b156113cc57600a87908060018154018082558091505060019003906000526020600020016000909190919091505561143b565b601487101580156113dd5750603287105b1561141057600b87908060018154018082558091505060019003906000526020600020016000909190919091505561143a565b600c8790806001815401808255809150506001900390600052602060002001600090919091909150555b5b5b811561145b576004600081548092919061145590612380565b91905055505b5b50505050505050505050565b6060600a8054806020026020016040519081016040528092919081815260200182805480156114b657602002820191906000526020600020905b8154815260200190600101908083116114a2575b5050505050905090565b60608060006060600080866040516114d891906120a2565b90815260200160405180910390206001016000876040516114f991906120a2565b908152602001604051809103902060000160008860405161151a91906120a2565b90815260200160405180910390206003015460008960405161153c91906120a2565b908152602001604051809103902060050160008a60405161155d91906120a2565b908152602001604051809103902060080160009054906101000a900460ff1684805461158890611f86565b80601f01602080910402602001604051908101604052809291908181526020018280546115b490611f86565b80156116015780601f106115d657610100808354040283529160200191611601565b820191906000526020600020905b8154815290600101906020018083116115e457829003601f168201915b5050505050945083805461161490611f86565b80601f016020809104026020016040519081016040528092919081815260200182805461164090611f86565b801561168d5780601f106116625761010080835404028352916020019161168d565b820191906000526020600020905b81548152906001019060200180831161167057829003601f168201915b505050505093508180546116a090611f86565b80601f01602080910402602001604051908101604052809291908181526020018280546116cc90611f86565b80156117195780601f106116ee57610100808354040283529160200191611719565b820191906000526020600020905b8154815290600101906020018083116116fc57829003601f168201915b505050505091509450945094509450945091939590929450565b600081519050919050565b600082825260208201905092915050565b6000819050602082019050919050565b6000819050919050565b6117728161175f565b82525050565b60006117848383611769565b60208301905092915050565b6000602082019050919050565b60006117a882611733565b6117b2818561173e565b93506117bd8361174f565b8060005b838110156117ee5781516117d58882611778565b97506117e083611790565b9250506001810190506117c1565b5085935050505092915050565b60006020820190508181036000830152611815818461179d565b905092915050565b600081519050919050565b600082825260208201905092915050565b60005b8381101561185757808201518184015260208101905061183c565b60008484015250505050565b6000601f19601f8301169050919050565b600061187f8261181d565b6118898185611828565b9350611899818560208601611839565b6118a281611863565b840191505092915050565b600060208201905081810360008301526118c78184611874565b905092915050565b6000604051905090565b600080fd5b600080fd5b600080fd5b600080fd5b7f4e487b7100000000000000000000000000000000000000000000000000000000600052604160045260246000fd5b61192582611863565b810181811067ffffffffffffffff82111715611944576119436118ed565b5b80604052505050565b60006119576118cf565b9050611963828261191c565b919050565b600067ffffffffffffffff821115611983576119826118ed565b5b61198c82611863565b9050602081019050919050565b82818337600083830152505050565b60006119bb6119b684611968565b61194d565b9050828152602081018484840111156119d7576119d66118e8565b5b6119e2848285611999565b509392505050565b600082601f8301126119ff576119fe6118e3565b5b8135611a0f8482602086016119a8565b91505092915050565b600060208284031215611a2e57611a2d6118d9565b5b600082013567ffffffffffffffff811115611a4c57611a4b6118de565b5b611a58848285016119ea565b91505092915050565b611a6a8161175f565b82525050565b60006040820190508181036000830152611a8a8185611874565b9050611a996020830184611a61565b9392505050565b6000602082019050611ab56000830184611a61565b92915050565b600081519050919050565b600082825260208201905092915050565b6000819050602082019050919050565b600082825260208201905092915050565b6000611b038261181d565b611b0d8185611ae7565b9350611b1d818560208601611839565b611b2681611863565b840191505092915050565b6000611b3d8383611af8565b905092915050565b6000602082019050919050565b6000611b5d82611abb565b611b678185611ac6565b935083602082028501611b7985611ad7565b8060005b85811015611bb55784840389528151611b968582611b31565b9450611ba183611b45565b925060208a01995050600181019050611b7d565b50829750879550505050505092915050565b60006020820190508181036000830152611be18184611b52565b905092915050565b60008060408385031215611c0057611bff6118d9565b5b600083013567ffffffffffffffff811115611c1e57611c1d6118de565b5b611c2a858286016119ea565b925050602083013567ffffffffffffffff811115611c4b57611c4a6118de565b5b611c57858286016119ea565b9150509250929050565b60008115159050919050565b611c7681611c61565b8114611c8157600080fd5b50565b600081359050611c9381611c6d565b92915050565b60008060408385031215611cb057611caf6118d9565b5b600083013567ffffffffffffffff811115611cce57611ccd6118de565b5b611cda858286016119ea565b9250506020611ceb85828601611c84565b9150509250929050565b611cfe8161175f565b8114611d0957600080fd5b50565b600081359050611d1b81611cf5565b92915050565b6000806000806000806000806000806101408b8d031215611d4557611d446118d9565b5b60008b013567ffffffffffffffff811115611d6357611d626118de565b5b611d6f8d828e016119ea565b9a505060208b013567ffffffffffffffff811115611d9057611d8f6118de565b5b611d9c8d828e016119ea565b99505060408b013567ffffffffffffffff811115611dbd57611dbc6118de565b5b611dc98d828e016119ea565b9850506060611dda8d828e01611d0c565b97505060808b013567ffffffffffffffff811115611dfb57611dfa6118de565b5b611e078d828e016119ea565b96505060a08b013567ffffffffffffffff811115611e2857611e276118de565b5b611e348d828e016119ea565b95505060c08b013567ffffffffffffffff811115611e5557611e546118de565b5b611e618d828e016119ea565b94505060e08b013567ffffffffffffffff811115611e8257611e816118de565b5b611e8e8d828e016119ea565b935050610100611ea08d828e01611c84565b9250506101208b013567ffffffffffffffff811115611ec257611ec16118de565b5b611ece8d828e016119ea565b9150509295989b9194979a5092959850565b611ee981611c61565b82525050565b600060a0820190508181036000830152611f098188611874565b90508181036020830152611f1d8187611874565b9050611f2c6040830186611a61565b8181036060830152611f3e8185611874565b9050611f4d6080830184611ee0565b9695505050505050565b7f4e487b7100000000000000000000000000000000000000000000000000000000600052602260045260246000fd5b60006002820490506001821680611f9e57607f821691505b602082108103611fb157611fb0611f57565b5b50919050565b600081905092915050565b60008190508160005260206000209050919050565b60008154611fe481611f86565b611fee8186611fb7565b94506001821660008114612009576001811461201e57612051565b60ff1983168652811515820286019350612051565b61202785611fc2565b60005b838110156120495781548189015260018201915060208101905061202a565b838801955050505b50505092915050565b60006120668284611fd7565b915081905092915050565b600061207c8261181d565b6120868185611fb7565b9350612096818560208601611839565b80840191505092915050565b60006120ae8284612071565b915081905092915050565b60006020601f8301049050919050565b600082821b905092915050565b6000600883026121067fffffffffffffffffffffffffffffffffffffffffffffffffffffffffffffffff826120c9565b61211086836120c9565b95508019841693508086168417925050509392505050565b6000819050919050565b600061214d6121486121438461175f565b612128565b61175f565b9050919050565b6000819050919050565b61216783612132565b61217b61217382612154565b8484546120d6565b825550505050565b600090565b612190612183565b61219b81848461215e565b505050565b5b818110156121bf576121b4600082612188565b6001810190506121a1565b5050565b601f821115612204576121d581611fc2565b6121de846120b9565b810160208510156121ed578190505b6122016121f9856120b9565b8301826121a0565b50505b505050565b600082821c905092915050565b600061222760001984600802612209565b1980831691505092915050565b60006122408383612216565b9150826002028217905092915050565b6122598261181d565b67ffffffffffffffff811115612272576122716118ed565b5b61227c8254611f86565b6122878282856121c3565b600060209050601f8311600181146122ba57600084156122a8578287015190505b6122b28582612234565b86555061231a565b601f1984166122c886611fc2565b60005b828110156122f0578489015182556001820191506020850194506020810190506122cb565b8683101561230d5784890151612309601f891682612216565b8355505b6001600288020188555050505b505050505050565b7f4e487b7100000000000000000000000000000000000000000000000000000000600052603260045260246000fd5b7f4e487b7100000000000000000000000000000000000000000000000000000000600052601160045260246000fd5b600061238b8261175f565b91507fffffffffffffffffffffffffffffffffffffffffffffffffffffffffffffffff82036123bd576123bc612351565b5b600182019050919050565b60006123d38261175f565b91506123de8361175f565b92508282039050818111156123f6576123f5612351565b5b92915050565b60006124078261175f565b91506124128361175f565b925082820190508082111561242a57612429612351565b5b92915050565b7f4e487b7100000000000000000000000000000000000000000000000000000000600052601260045260246000fd5b600061246a8261175f565b91506124758361175f565b92508261248557612484612430565b5b828206905092915050565b600061249b8261175f565b91506124a68361175f565b9250826124b6576124b5612430565b5b828204905092915050565b60008160f81b9050919050565b60006124d9826124c1565b9050919050565b60006124eb826124ce565b9050919050565b6125036124fe82611c61565b6124e0565b82525050565b600061251582846124f2565b60018201915081905092915050565b600061252f8261175f565b91506000820361254257612541612351565b5b600182039050919050565b7f70617469656e7400000000000000000000000000000000000000000000000000600082015250565b6000612583600783611fb7565b915061258e8261254d565b600782019050919050565b60006125a482612576565b915081905091905056fea264697066735822122008378f809ee337e220ac9fdadc223232497c29b9b91733151734183255047f7a64736f6c63430008100033",
  "immutableReferences": {},
  "source": "// SPDX-License-Identifier: GPL-3.0\n\npragma solidity >=0.8.2 <0.9.0;\n\ncontract User{\n\n    // User Struct\n    struct User {\n        string id;\n        string name;\n        string pass;\n        uint age;\n        string gender;\n        string vaccine_status;\n        string district;\n        string symptoms_details;\n        bool is_dead;\n        string mode;\n    }\n\n    // For checking if an user exists\n    mapping(string => User) users;\n    mapping(string => bool) userExists;\n\n    // Patient List\n    string[] patientList;\n    uint patientCount;\n\n    // Death Count\n    uint deathCount = 0;\n    \n    // For checking if a district exists\n    mapping (string => bool) districtExists;\n    string[] districtList;\n\n    // Covid count in each district\n    mapping (string => uint) covidCountInDistrict;\n\n    // Age List in each district\n    mapping (string => uint[]) ageListInDistrict;\n\n    // Age List for children\n    uint[] ageListChildren;\n\n    // Age List for teen\n    uint[] ageListTeen;\n\n    // Age List for young\n    uint[] ageListYoung;\n\n    // Age List for elder\n    uint[] ageListElder;\n\n    // Registers a user\n    function registerUser(\n        string memory _id,\n        string memory _name,\n        string memory _pass,\n        uint _age,\n        string memory _gender,\n        string memory _vaccine_status,\n        string memory _district,\n        string memory _symptoms_details,\n        bool _is_dead,\n        string memory _mode\n    ) public {\n        // Create a new user\n        users[_id] = User(_id,\n        _name,\n        _pass, \n        _age, \n        _gender,\n        _vaccine_status,\n        _district,\n        _symptoms_details,\n        _is_dead,\n        _mode\n        );\n\n        userExists[_id] = true;\n\n\n        // Checks if the user is patient or admin\n        if (keccak256(abi.encodePacked(_mode)) == keccak256(abi.encodePacked(\"patient\"))){\n\n            // Checks if a district exists\n            if (!(districtExists[_district])){\n                districtExists[_district] = true;\n                districtList.push(_district);\n            }\n\n            patientList.push(_id);\n            patientCount++;\n            \n            // Increase covid count in each district by 1 when a patient registers\n            covidCountInDistrict[_district]++;\n\n            // Push user age in the age list for each district\n            ageListInDistrict[_district].push(_age);\n\n            // Push user age according to age\n            if (_age < 13){\n                ageListChildren.push(_age);\n            }\n            else if (_age >= 13 && _age < 20){\n                ageListTeen.push(_age);\n            }\n            else if (_age >= 20 && _age < 50){\n                ageListYoung.push(_age);\n            }\n            else{\n                ageListElder.push(_age);\n            }\n            \n\n            // Checks if the patient is is_dead\n            if (_is_dead){\n                deathCount++;\n            }\n        }\n        \n    }\n\n    // For checking if a user has already registered\n    function getUser(string memory _id) public view returns (string memory) {\n        if (userExists[_id]){\n            return users[_id].pass;\n        }\n        else{\n            return \"None\";\n        }\n        \n    }\n\n    // Output the registered patient list\n    function getPatientList() public view returns (string[] memory){\n        \n        string[] memory output = new string[](patientList.length+1);\n\n        for (uint i = 0; i < patientList.length; i++) {\n            output[i] = patientList[i];\n        }\n\n        output[patientList.length] = \"\";\n\n        return output;\n    }\n\n    // Admin can update vaccine status of a patient\n    function updatePatientVaccine(\n        string memory _id,\n        string memory _vaccine_status\n        ) public {\n            \n            users[_id].vaccine_status = _vaccine_status;\n    }\n\n    // Admin can update the is_dead of a patient\n    function updatePatientDead(\n        string memory _id,\n        bool _is_dead\n    ) public {\n\n        // Only change deathCount if the Admin updates to a new value\n        if (keccak256(abi.encodePacked(_is_dead)) != keccak256(abi.encodePacked(users[_id].is_dead))){\n             if (_is_dead){\n                deathCount++;\n            }\n            else{\n                deathCount--;\n            }\n\n            users[_id].is_dead = _is_dead;\n        }\n    }\n\n    // Certificate output\n    function getCertificate(string memory _id) public view returns (\n        string memory, string memory, uint, string memory, bool){\n\n        return (users[_id].name, \n        users[_id].id, users[_id].age,\n         users[_id].vaccine_status, users[_id].is_dead);\n    }\n\n    // Get Death Count\n    function getDeathCount() public view returns (uint){\n        return deathCount;\n    }\n    \n    // Get Patient Count\n    function getPatientCount() public view returns (uint){\n        return patientCount;\n    }\n\n    // Highest covid patient district\n    function getHighestPatient() public view returns (string memory, uint){\n        uint max = 0;\n        string memory highestDistrict;\n\n        for (uint i = 0; i < districtList.length; i++){\n            if (covidCountInDistrict[districtList[i]] >= max){\n                max = covidCountInDistrict[districtList[i]];\n                highestDistrict = districtList[i];\n            }\n        }\n\n        return (highestDistrict, max);\n    }\n\n\n    // Get district\n    function getDistrictList() public view returns (string[] memory){\n        string[] memory output = new string[](districtList.length+1);\n\n        for (uint i = 0; i < districtList.length; i++) {\n            output[i] = districtList[i];\n        }\n\n        output[districtList.length] = \"\";\n\n        return output;\n    }\n    \n    // Median age in each district \n    function getMedianAge() public view returns (uint[] memory){\n        uint[] memory medianAgeList = new uint[](districtList.length);\n        \n        for (uint  i = 0; i < districtList.length; i++){\n            uint[] memory ageList = ageListInDistrict[districtList[i]];\n            \n            // Sorting\n            for (uint j = 0; j < ageList.length - 1; j++){\n                for (uint k = 0; k < ageList.length - j - 1; k++){\n                    if (ageList[k] > ageList[k + 1]){\n                        (ageList[k], ageList[k + 1]) = (ageList[k + 1], ageList[k]);\n                    }\n                }\n            }\n\n            uint n = ageList.length;\n\n            uint medianAge = 0;\n\n            if (n % 2 != 0){\n                uint term = (n + 1) / 2 - 1;\n                medianAge = ageList[term]; \n            }\n            else {\n                uint term1 = n / 2;\n                uint term2 = (n + 1) / 2;\n\n                medianAge = (ageList[term1] + ageList[term2]) / 2 - 1;\n                \n            }\n            medianAgeList[i] = medianAge;\n        }\n        \n        return medianAgeList;\n    }\n\n    function getChildren() public view returns (uint[] memory){\n        return ageListChildren;\n    }\n\n    function getTeen() public view returns (uint[] memory){\n        return ageListTeen;\n    }\n\n    function getYoung() public view returns (uint[] memory){\n        return ageListYoung;\n    }\n\n    function getElder() public view returns (uint[] memory){\n        return ageListElder;\n    }\n\n    string sessionUser = \"\";\n    function setSessionUser(string memory _userId) public{\n        sessionUser = _userId;\n    }\n\n    function getSessionUser() public view returns (string memory){\n        return sessionUser;\n    }\n\n    function getUserMode() public view returns (string memory){\n        if (userExists[sessionUser]){\n            return users[sessionUser].mode;\n        }\n    }\n\n}\n",
  "sourcePath": "/home/mahi/Desktop/446_project/patient_management/contracts/User.sol",
  "compiler": {
    "name": "solc",
    "version": "0.8.16+commit.07a7930e.Emscripten.clang"
  },
  "schemaVersion": "3.4.16",
  "updatedAt": "2024-04-15T16:58:44.753Z",
  "networkType": "ethereum",
  "devdoc": {
    "kind": "dev",
    "methods": {},
    "version": 1
  },
  "userdoc": {
    "kind": "user",
    "methods": {},
    "version": 1
  }
}